:020000040000fa
:08000000020c040000000000e6
:020000040000fa
:10000800a8200000a8200000a8200000a8200000c8
:10001800a8200000a8200000a8200000a8200000b8
:10002800a8200000a8200000a8200000a8200000a8
:10003800a8200000a8200000a8200000a820000098
:020000040000fa
:020000040000fa
:10180000020000008fad20000eff20000e018800b6
:1018100000000000000020000000e0000200320094
:1018200000012000200288000c00070000fc2200bc
:101830000100200011000700000020000000e0006f
:101840000200320000000200000000009c2602009e
:10185000000000000040da000000fe004440a90043
:10186000e07f20000000e0000300320000002000c4
:10187000a00188004440a8000000060091018800f3
:10188000800078000000eb0015003700e280400087
:1018900032a0b4009101ba00e280400032a0b4004e
:1018a0009102ba00e280400032a0b4000002eb00d6
:1018b000472bde00f507b200602ce10004003a007f
:1018c0000059eb008301e900fdff3e0004003700f2
:1018d0006128e100010032000082eb0004000700f3
:1018e0001101ba000200e000e8ff3a000000060023
:1018f0003159ba008301e9000c0032002159ba00c5
:101900008301e900080032000400e00003003a000f
:10191000e280400032a0b400f5ff370011d9ba00d0
:101920008301e900faff3a008100e800e18040000d
:1019300032a0b400000006000a00fa00e20f5000d6
:1019400020003e00b0568000e10f5000060032003b
:1019500000002000050020000300200004002000fb
:101960000000e00004003a00802220004522200010
:101970002322200004222000060028001403630014
:1019800003003a000608780000002800140a7000de
:1019900013a8a30001003a0013a0a00002007800e1
:1019a000050037001388a300feff32003102fb0060
:1019b000840a78000000e9000000e000f9ff3a0026
:1019c0000800370033002000b3bf9f00c0bf9f0056
:1019d000d1bf9f00e2bf9f006a80570066050700e5
:1019e0006fb99700020078000080fa00000006003e
:1019f00003f0a200889fbe008a9fbe008c1f780063
:101a0000f5000700fc0033006450e1004f00320095
:101a10006420e1005200320003826c0007003b00aa
:101a20000905d0000306d000820f54000c065d00ab
:101a300002003900020032008901780003067800b4
:101a40008582550004003d000003fd008103fd0078
:101a50008502ea008b854200840f720002003b0081
:101a600060001000e08018006011b8000005eb0075
:101a70007a28e1000a00390006007800c75ddd0021
:101a8000f707b200878075002d0037008281710052
:101a90000a017800610560008180d1000080d300d8
:101aa0008502e900f9ff3b000604400087844800f6
:101ab00002003b0060041400e0841c000988a300bd
:101ac000070032008a817100828171006101640027
:101ad0008904d1000884d3008b05e8001700370083
:101ae0000978a30013003a000b00e0001300340053
:101af0008b05e9000804440089844c000a44740002
:101b00000978a3000d003a000b00e0000700340044
:101b10008b05e9000804440089844c0001003a0068
:101b20000b0020000978a300f7ff32000001eb0052
:101b300002003700828171000a0178006b00070003
:101b40000cf0a70001f0a000b40037006420e10011
:101b500002003a00838f6c00b40033000801be001d
:101b60000200be00ad003700889fbe008a9fbe0005
:101b70008c1f7800980007009f00330003866c00dc
:101b80006450e1002e0032006420e1003300320096
:101b90006150e1002f0032006120e100310032008d
:101ba00085855500eb07b0000900200008042000df
:101bb000050037000804440089844c000a00310005
:101bc0000603430087834b000001530081815b00c3
:101bd000f8ff33000203be000800a0000804440020
:101be00089844c00f6ff3900c639dd00830173009b
:101bf00001003200130020008904d1000884d300c2
:101c00000998a300050032000800a7000300a00007
:101c10008904d1000884d3008b05e8008904d10031
:101c20000884d3000001eb000281d2002f000700de
:101c300001f0a1000cf0a70001f0a0007700370030
:101c40006420e100790032000801be000200be00fd
:101c5000f7ff37006120e100740032006000b80037
:101c6000f3ff37000000200001f82700f0ff3700e5
:101c700014002000700037000001be004100070082
:101c80000470a70003f0a10003f8a30013003a00ba
:101c90006509b10010003200090035006928e10033
:101ca000020035000100280000000500000040008f
:101cb000818048008502e900fcff3a000000060030
:101cc000f88f4200050035008100d1000080d3006c
:101cd0008502e800fcff3a00000006008000eb00ef
:101ce000000005006011b8006e0037008100200080
:101cf000618055000b003d000b00200061fe2f00ad
:101d00000100e1001d003400828171006101640066
:101d10008904d1000884d3000000e800faff3a00eb
:101d20007100200061006400030070000200600088
:101d30000900320061044400e0844c000988a500d9
:101d4000050032008b05e8006808e10002003a0057
:101d50008904d1000884d300f20f20000258e1006a
:101d600005003d00c75ddd00f907b2008980750000
:101d700008007800000006000bf827008b007800b0
:101d800000000500c70ade00f107b200f50fb2003f
:101d900008003200e1cf4200020032000170a000d2
:101da00024000500810f70000100320004080500c6
:101db00044000500810f700002003a001400050085
:101dc0008502e9000000400081c04800fcff3b00a4
:101dd0000170a000240005000004be00e9ff070018
:101de0000003be000405be000200be00e5ff0700c0
:101df000844f7500000006000200be006450e10040
:101e0000050036006420e100020036000968a300e6
:101e100001003a000800be000160a0004f067800f3
:101e20004f05be004f04be0000000600f0ff2f006b
:101e3000f1ff2700f9ff3700889fbe008a9fbe0090
:101e4000841f7800e4ff07004f0078001100330082
:101e5000f0ff2f00838f6c0006003b000405650037
:101e60000a00a7000800370009f0a60010002000b3
:101e700008003700820f5400838f5c000300390094
:101e80001000200001003e000000200009f0a70023
:101e90000000ea004f05be004f04be000000e00055
:101ea00000000600889fbe008a9fbe00008270006e
:101eb0000402710004827100260032000004be009a
:101ec0000200be006011b8006b09200095022000de
:101ed0000182cf000a0039000541b1000082cf0025
:101ee000070039000541b1000982cf000400390024
:101ef0000541b1000882cf00010039000541b10061
:101f000005425200120032000a003b00828171003b
:101f1000610164008100d1000080d3008984d30076
:101f20000884d3008b05e8000442e800f7ff3a007c
:101f3000070037000804440089844c000000480072
:101f4000818048008b05e9000442e900f9ff3a006e
:101f500066ff07004f05be004f04be0000000600ec
:101f6000889fbe000004be00050037000000fb0093
:101f7000890078001b000700e10f400004003200d8
:101f8000384078000004e000f8ff3a000000eb0061
:101f90004f04be0000000600881f780061ab2000df
:101fa000efff07000004780061ab2000a0002000d4
:101fb0000c000700080078004f04780000000600bd
:101fc00061ab2000070037000000fa00688157006d
:101fd000cfb8970060ab20004e0007000080fa00e9
:101fe00000000600889fbe0001047800b800900041
:101ff0008084eb000118a3003a0032001801900021
:102000000198a30002003a000200e00035003a0007
:102010000190a0003104980080047800f90fb2000c
:102020000200e00002003a0028009000000c780056
:10203000ea8f540005003a000178a30003003a003b
:1020400088007800d0002000e6ff0700180090000c
:10205000d8009000810f50000b0032000000e80013
:10206000100498001800780009487800000ce80077
:1020700011c0b30000ad200001487800ea8f540081
:1020800018003a0005003700880078000940780001
:102090007a030700800478001200370038009000af
:1020a0000088a3000f00320018019000a8009000e3
:1020b0004800900020fe070098009000810f50001b
:1020c00004003200380090000003b3003004980090
:1020d0008084eb000000eb001004980028009000c2
:1020e000000c7800090078004f04be0000000600d4
:1020f000d0019000028151004240a9000300340049
:1021000010017800014978000208e8000100780019
:10211000000006002f02b000889fbe008a9fbe000c
:102120008c9fbe008e1f780080067800d1af9f0084
:1021300092b79f000007eb0044033700dfa8970029
:102140008100e800d1af9f0051c2b300814f500021
:1021500003003a005fa897000006eb00110037006b
:10216000bd0090000000fb000168a30007003200e2
:102170000e017800800078000d007800dcff070079
:102180000000e00005003a00300337008d007800c1
:1021900094ff0700e10f40002c0332000e07e80017
:1021a0002a0337008000780030417800d3c2b300a2
:1021b000834f51000c00320007003c00edc151007c
:1021c000834f51000a003200ebc14100834f5100a0
:1021d0000d003a000800370003c3b300834f5100dd
:1021e00009003a00060037000c30a000edff370070
:1021f0000c00a000ebff37000c10a000e9ff370037
:102200000c20a000e7ff37000c18a30001003200eb
:102210000c00a1000c38a300010032000c20a1002a
:102220000200fb000003b100e90f50000c003e006b
:10223000010178000000eb006a00b900b201fb0068
:102240000303b10000804100820078009201fb008e
:102250000303b100e98f5100f7ff36000800370093
:102260000000eb00a3c2b300834f510004003a000a
:102270001fb197004200780092b79f008100e800ec
:102280008001eb00a3b79f00e2c2b300914f1100a1
:102290000c003a000ce0a00064415100d14f110045
:1022a00003003200010178000302780009003700c2
:1022b0001fb29700c402780094b79f00a5b79f0093
:1022c0008100e80001017800090037006a22b900a6
:1022d0000482410082007800b201fb000303b100d8
:1022e000e98f5100f9ff3600a4b79f00f5ff3700d2
:1022f000b2407800d2af9f00c3c6b30083cf500076
:10230000250032000f003c0032c6b30082cf5000df
:10231000a000320004003c000104e000d0023200c2
:102320006b4151000f00370042c6b30082cf50000e
:10233000170032006541410082cf5000b3003a00df
:102340001300370032c7b30082cf50001f003200a5
:1023500007003c006441510082cf5000140032005d
:102360000241e80082cf5000a8003a001300370075
:1023700052c7b30082cf5000ab003200634141002e
:1023800082cf5000a1003a00a1d79f000d00370076
:10239000a1d79f00a6003700010120000c48a30030
:1023a00001003200010028000c867000d0ff3700c9
:1023b000a1d79f000c60a0009d003700a1d79f000f
:1023c0000c50a0000c70a00099003700a1d79f000e
:1023d0009fb39700c700780097b79f00b1b79f00e1
:1023e0000100e00002003a0029a02000b9b79f00d8
:1023f0003fb197008000eb00010037008100e8004a
:10240000e2c178000304e000fcff3a00c1b79f007e
:102410002fb597000a00e00005003200cfb5970005
:102420008b0f5500020031008a007800c1b79f0071
:10243000cfb097000004eb00810f50000100360080
:1024400001045000680666002b003a0011003700b6
:102450003d0090000068a300070032000e017800e4
:10246000010220000d00780021ff07000000e000bd
:1024700006003a00060037008d00780000022000b8
:10248000d8fe0700e10f4000010032000e07e8000f
:102490000804e9000800e000edff3a000084eb00ca
:1024a000150037003d0090000068a30009003200cd
:1024b00008007800b000fb00000478000e017800ee
:1024c0000d0078000aff07000000e00008003a0055
:1024d0000f003700880078003100fb00010478000d
:1024e0008d007800bffe0700e10f400008003200b9
:1024f0000e07e80006003700acb79f00080678001a
:102500003fb49700cfb497005fb59700efb5970041
:10251000090078008004e9000000e000e1ff3a00d3
:10252000b8b79f00c9b79f00dab79f00ebb79f000d
:102530000c0478002fb697000c00e0004302320034
:10254000110037003d0090000068a3000700320032
:102550000e017800010220000d007800e4fe070063
:102560000000e00006003a00060037008d00780009
:10257000000220009bfe0700e10f40000100320036
:102580000e07e8000804e9000800e000edff3a004b
:102590002e0237009fb297004504780095b79f0040
:1025a000cfc4de00614db9000802be000a03be00c0
:1025b0004822de00c828dd0004827000a4d79f00f6
:1025c0000c48a300090032000404e00007003200b8
:1025d000e14f420005003200b4d79f00c8d79f00ea
:1025e00022002000c2b79f0003003700b8d79f0029
:1025f00013002000c3b79f0024fd2f000f024200ec
:102600000402e800b4b79f0081ff3700a1d79f0004
:1026100025fd2f0085824700b5b79f0016002000da
:10262000c6b79f007aff3700a1d79f000c0cb300fc
:102630008c007800010cb20032003a000c00e0007f
:1026400005003d009fb097004105be004104be005b
:1026500091b79f00080037000c48a3000b00320020
:102660001fb297004401be0094b79f000204be0051
:102670004fcdde008a057800b8b79f00c9b79f002c
:10268000dab79f00ebb79f00090037009fb49700af
:10269000c900780099b79f00610ab900612bb900a1
:1026a000b4b79f00c5b79f00d6b79f00e7b79f009c
:1026b0003fb49700cfb497005fb59700efb5970090
:1026c000e00f5400e08f5c00e00f5d00e08f5d00e4
:1026d00022003d003c00b3006022b8006033b80027
:1026e0000804520089845a000a055b008b855b0050
:1026f000b8b79f00c9b79f00dab79f00ebb79f003c
:10270000160037000c00e00004003d001fb49700e5
:102710004803be004802be00050037000c48a30075
:10272000050032001fb497004802be006033b800b5
:1027300098b79f00050037009fb49700c900780044
:1027400099b79f00610ab8006033b800b4b79f0022
:10275000c5b79f00d6b79f00e7b79f00afb29700fd
:102760000500e0000d003a0016002000a6b79f000b
:102770003fb49700cfb497005fb59700efb59700cf
:10278000e00f5400e08f5c00e00f5d00e08f5d0023
:10279000020032008004eb00a9b79f000c0578000e
:1027a0000a0cb2008ab79f0001042000810f550077
:1027b0003400320003003c000a00e0000800320050
:1027c00048003700010820008fb59700818f550021
:1027d00014003200010c2000818f550041003a00a6
:1027e00022a1200011c0b3003202be003203be009d
:1027f0003fb49700cfb497005fb59700efb597004f
:102800000440e10005c8e10006d0e10007d8e1007e
:10281000330039008140e800f4cf5000f2ff3a0065
:102820002f00370011c0b300040120000500200074
:102830006033b8003fb49700cfb497005fb59700fe
:10284000efb597000440e10005c8e10006d0e100c3
:1028500007d8e10022003900490020000402d0001e
:102860008582d2000683d2008783d2008904e900e2
:10287000faff3a008140e800f0cf5000edff3a0047
:102880001700370011c0b3008400200005002000ad
:102890006033b8003fb49700cfb497005fb597009e
:1028a000efb597000440e10005c8e10006d0e10063
:1028b00007d8e1000a003900390020000402d000e6
:1028c0008582d2000683d2008783d2008904e90082
:1028d000faff3a008140e800f5cf5000edff3a00e2
:1028e000a1d79f002fd597008a00fb00afb59700b6
:1028f0008b8f500002003d00abd79f0004003700d3
:102900002fb19700810f510001003d00a1b79f003a
:102910000000e00003003200e30066000100320026
:102920000000e9000ce8a30006003200afb19700f8
:10293000830f5000020034000300500001003700f4
:102940000000eb002fd297008400fb008002eb0018
:10295000f5af9f00810f500002003400810050004d
:10296000f1af9f000c28a3003c003200610166001b
:102970000c18a3000f0032003d0090000068a30077
:1029800006003200b10220000200e0000100320027
:102990008180e8000e0178000d003700b0022000b1
:1029a0000200e000010032000080e8008d007800a5
:1029b0000e0037000200e000100032003d009000e1
:1029c0000068a300070032000e0178000102200019
:1029d0000d007800c6fd07000000e00006003a0088
:1029e000060037008d007800000220007dfd070002
:1029f000e10f4000010032000e07e8007fab9700b6
:102a00000600e00052003200060478003d0090000d
:102a10000068a300070032000e01780001032000c7
:102a20000d007800b2fd07000000e00006003a004b
:102a3000060037008d0078000003200069fd0700c4
:102a4000e10f4000010032000e07e8000804e90031
:102a5000eeff3a00f8af9f003d003700ffab970054
:102a60000700e000160032000c38a30014003a0002
:102a7000070478003d0090000068a30007003200c2
:102a80000e017800010220000d00780098fd07007b
:102a90000000e00006003a00060037008d007800d4
:102aa000000220004ffd0700e10f4000010032004e
:102ab0000e07e8000804e900eeff3a00f8af9f00b7
:102ac000610166000c18a3000f0032003d00900069
:102ad0000068a30006003200b10220000200e000fe
:102ae000010032008180e8000e0178000d003700ff
:102af000b00220000200e000010032000080e80087
:102b00008d0078000e0037000200e0001000320057
:102b10003d0090000068a300070032000e0178001d
:102b2000010220000d00780071fd07000000e000a8
:102b300006003a00060037008d00780000022000f1
:102b400028fd0700e10f4000010032000e07e800f9
:102b50002fb497000800e900c204dd00c9af9f0050
:102b60006301b90002057800baaf9f004300dd00a1
:102b7000a1a0200081004000e1af9f009800370035
:102b8000afb597008b05e900abb79f0000042000ac
:102b90008fb09700808f50006800320003003c0027
:102ba0000100e00008003200730037000008200038
:102bb0000fb19700800f51004c003200000c200034
:102bc000800f51006c003a000c00e0001e003d0038
:102bd000efa997003304be002305be000802be0023
:102be0000a03be003fb09700cfb097005fb19700d7
:102bf000efb1970091010700a0d79f000000fb00f4
:102c0000cf80de006109b9000802be000a03be00e1
:102c1000f30107003fb29700cfb297005fb3970070
:102c2000efb397000002520081825a0002035b005a
:102c300083835b00b4b79f00c5b79f00d6b79f00e2
:102c4000e7b79f00250037000c48a3001a003200a8
:102c50003fb29700cfb297006fab97003604be002b
:102c60002605be000801be000400be00f4b79f00a8
:102c700085bf9f00c2000700a0d79f000000fb0097
:102c8000cf80de000801be00cd0007007fb29700b4
:102c90008fba97000002520081825a000404be00dd
:102ca0006055b800b8b79f00c9b79f00dab79f005a
:102cb000ebb79f0009003700efac970019017800cf
:102cc0003fb59700110009000285d800a20020003e
:102cd000110009000280d800a1d79f00afd597004e
:102ce0000b43b000abd79f0023003700109f20009c
:102cf0000c58a30001003200009e20003fb2970054
:102d0000cfb297005fb39700efb39700cfa89700bb
:102d10008100e900050033008703d1000683d3005a
:102d20008582d3000482d300f9ff37006f0262006e
:102d300060427a00a4d79f000f0037003fb0970091
:102d4000cfb097005fb19700efb197003faa97000f
:102d50000402e900050033008301d1000281d300a1
:102d60008180d3000080d300f9ff37006740600006
:102d70000043b000a0d79f00bd009000afd29700e5
:102d80000500fb000168a300070032000e01780077
:102d9000800078000d007800d5fc07000000e000fe
:102da00005003a00050037008d0078008dfc070013
:102db000e10f4000010032000e07e8004fab970022
:102dc00064035300c6af9f00bfab9700e38353007b
:102dd000b7af9f006fac970068045400e8af9f0046
:102de000afb497000900e00065ff3a000c38a3007b
:102df000160032007fad97000a00e0001300340097
:102e00000a0478003d0090000068a300070032002b
:102e10000e017800010220000d007800b4fc0700cc
:102e20000000e00006003a00060037008d00780040
:102e3000000220006bfc0700e10f4000010032009f
:102e40000e07e8000804e900eeff3a00dfad970046
:102e50001b407800a0d79f000004e000b7fc3a00b8
:102e60000e0078004f0778004f06be004f05be00e9
:102e70004f04be002f02b100000006000200fa005d
:102e8000889fbe00a0ff9f000104780038009000da
:102e90000068a30033003a00e200600005003a0039
:102ea0000003b30030049800110498000080eb0088
:102eb0002e003700d80490000900e00006003a0018
:102ec00012002000e6805700480090009afa0700a0
:102ed0001904980023003700a80090000100e000ca
:102ee00008003a0031ad200021049800010c780060
:102ef0002100200051049800110498000030a00027
:102f00003004980018019000a8009000480090003c
:102f100089fa0700280090008080eb0011049800d7
:102f2000aff8970001487800000ce8002ff89700f0
:102f3000ea4f50000b003a00380090000088a300d0
:102f40000800320018019000a8009000480090008e
:102f500079fa07000000eb0010049800a800900028
:102f6000010c7800aff897000100fb004f04be0091
:102f70000080fa000000060000c0da000000060031
:102f80006022b800060220000000d0008180d2003c
:102f90000482d2008582d2000000a000020252000a
:102fa00083825a00030031000202420083824a00f9
:102fb0000000a1000603e900f3ff3a00000006004c
:102fc000020ab900001bb9000200b80081004200eb
:102fd0008100430000000600889fbe008a9fbe005b
:102fe00030044200b0844a0030054b0090854b000d
:102ff0006000b1000898be000a90be000440e100e5
:1030000005c8e10006d0e10007d8e1000200310068
:10301000680040001008e8004f05be004f04be00e5
:1030200000000600889fbe008a9fbe003004be00dc
:103030002005be000418540005985c0006185d00c9
:1030400007985d00110020000440e10005c8e10080
:1030500006d0e10007d8e100010039008000eb0054
:10306000108810004f05be004f04be00000006008f
:103070001200fa00889fbe008a9fbe008c9fbe008f
:10308000e0b79f00f1b79f0082bf9f0093bf9f00f2
:103090000605be000404be000000eb00d0b79f0090
:1030a000c0b79f00b0b79f00a0b79f0090b79f0028
:1030b0000006eb005fb19700cfb09700820141009e
:1030c0003fb097000200e00004003d003700070019
:1030d0007e805700c0ff0700030037003300070061
:1030e0007e805700cfff0700dfb697000d00e0009d
:1030f0000c0035006fb29700ffb297000fbb97002e
:103100009fbb970010002000010020006011b80054
:1031100000027200818272000203730083837300d5
:103120001b0007000c06e80001042000810f560078
:10313000e0ff3a000d00e00004003d000802be0080
:103140000a03be007e805700a3ff07005fa8970018
:103150000000e00005003a001fb29700afb29700f0
:103160003fb39700cfb39700090007006fb09700f7
:10317000ffb097000fb997009fb997004f06be00a8
:103180004f05be004f04be000080fa00000006009c
:103190000100070000000600a4b79f00b5b79f001c
:1031a000c6b79f00d7b79f00000006004f09de009a
:1031b00082817100b3b79f004f01de008180400023
:1031c00082807000a1b79f008fb097004f09de008a
:1031d000000040000200700090b79f007fa8970099
:1031e0004f01de00818040008280700081b79f0027
:1031f0000d0007004f3ade000000400004007000a0
:10320000f0af9f00080007000402420085824a00d8
:1032100006034b0087834b00dfff07000802be0058
:103220000a03be00000006002fb29700bfb297004d
:103230004fb39700dfb3970000000600881f7800a7
:1032400018002000881f780089ff07008f87e90099
:103250004f04780000000600801feb0084ff070089
:103260008f87e90000000600889fbe008a9fbe008d
:10327000e00f5000e08f5800e00f5900e08f590038
:103280000c003d006044b8006055b80000005400d8
:1032900081805c0002015d0083815d0018002000d8
:1032a0001500070008003d00180007000004eb00af
:1032b000050037000004eb000f00070002003d008e
:1032c0001200070018002000dcff07000800e000e3
:1032d000060032006022b8006033b80000005200df
:1032e00081805a0002015b0083815b004f05be00b4
:1032f0004f04be0000000600e00f5200e08f5a00ad
:10330000e00f5b00e08f5b00000006006044b80047
:103310006055b8000402540085825c0006035d001d
:1033200087835d0000000600889fbe008a9fbe0064
:103330008c1f7800e00f5000e08f5800e00f59001c
:10334000e08f59000d003d006044b8006055b800a2
:103350000000540081805c0002015d0083815d00fb
:103360001c0020000820e10009a8e1000ab0e100eb
:103370000bb8e1000d003d00080037000006eb002f
:10338000e00f5200e08f5a00e00f5b00e08f5b001f
:1033900006003d006044b8006055b80004025400c7
:1033a00085825c0006035d0087835d00aaff07003d
:1033b0000c00e000060032006022b8006033b80064
:1033c0000000520081805a0002015b0083815b0093
:1033d0004f0678004f05be004f04be0000000600f7
:1033e000889fbe008a9fbe008c1f78000006eb00fd
:1033f000e00f5000e08f5800e00f5900e08f5900b7
:1034000007003d006044b8006055b800000054005b
:1034100081805c0002015d0083815d001c00200052
:10342000e00f5200e08f5a00e00f5b00e08f5b007e
:1034300007003d006044b8006055b8000402540025
:1034400085825c0006035d0087835d000c00a2009e
:103450000c0007000c00e000060032006022b800fb
:103460006033b8000000520081805a0002015b0006
:1034700083815b004f0678004f05be004f04be00fd
:1034800000000600889fbe008a9fbe008c9fbe0081
:103490000404b8000506b8008904460060854e00a3
:1034a0000606b8000a054600e0854e000706b8008b
:1034b0008b054600040eb800890446000a854e00bc
:1034c000e0854d00050eb8000a0546008b854e00cc
:1034d000060eb8008b0546000416b8000a05460023
:1034e0008b854e000516b8008b054600041eb800fb
:1034f0008b0546000800be000a01be004f06be0054
:103500004f05be004f04be00000006000400fa0094
:10351000004f7800110798001e4078000004e0007a
:1035200002003a001e0090001f0307000080fa000e
:10353000000006000000fa008e00070000102e00b8
:10354000010020002e02070004102e0005002000bc
:103550000001eb0000a0250021262000b004070098
:10356000401188002062a9000080fa0000000600d7
:103570000000fa00a24e8000b34e80000080eb00f5
:103580008080eb00800f5100818f590012003200c3
:10359000a04e8000b14e800061004000e0804800f5
:1035a000a04e8800b14e8800a24e8000b34e80002d
:1035b000f0d3200031002000800f5100818f59008e
:1035c00007003600dbff0700a0e12a00bf0007006c
:1035d000be020700feff37000000000001003700b8
:1035e000000000000080fa00000006000400fa005d
:1035f0002047980010c0b300ae409000e7cf5000c5
:10360000010036000040eb0031e82a00bfff070050
:10361000ff3ffc00113a8000010f78002e4090001f
:10362000674060000080fb00670060004800dd002c
:103630001e017800f18f2f008100610001007000f1
:10364000000f78001e0078000000a000000f780036
:103650000e00e800104078000081fb008007200089
:10366000a109200033742000804978008149780046
:10367000824978000e007800104078000081fb003d
:103680006004200071052000237420008049780028
:1036900081497800824978000000fc00d429ef00bd
:1036a000d629ef0001003700b1ff0700103a800073
:1036b000610060000000e000fbff3a002e40900037
:1036c000e14f5000060032002e409000e34f5000c2
:1036d0000c003a0003003700a5ff07000100370087
:1036e00000000000113a800000022000008060000d
:1036f0000000e000f8ff3200030037009cff0700e5
:103700000100370000000000103a80004c00de008d
:10371000674060008080fb002e4090000080fb002e
:10372000808f5000f5ff3a000080fa00000006008c
:103730000000fa000080fa00000006000000fa0015
:1037400020c0b300a9ff07000080fa0000000600b7
:103750000000fa000040eb00a4ff0700413a80009f
:1037600000fc2f0000806000403a88000080fa00d2
:10377000000006000000fa000040eb009bff07007d
:10378000413a800000fc2f0000806000403a880031
:10379000213a800000fe2f00008060007000b3001e
:1037a000203a8800313a800000e02f0080806000dd
:1037b000100c200001007000303a8800203a800090
:1037c0000060a1000070a100203a880010c0b30082
:1037d00086ff07000080fa00000006000000fa00e3
:1037e0000040eb0081ff0700213a800000fe2f001f
:1037f000008060000020a000203a8800313a80005c
:1038000000e02f00808060000008200001007000b0
:10381000303a8800203a80000060a1000070a100ca
:10382000203a880030c0b30070ff07000080fa0023
:10383000000006000000fa000040eb006bff0700ec
:10384000213a800000fe2f0000806000203a8800ae
:10385000313a800000e02f0080806000600220008c
:1038600001007000303a8800203a80000060a1001a
:103870000070a100203a880030c0b3005bff070051
:103880000080fa00000006000000fa0020c0b3002b
:1038900056ff07000080fa00000006000200fa0050
:1038a000004f7800b0568000e10f500003003a004e
:1038b0001e4078008f0107000200370040d22a0026
:1038c000390207000080fa00000006000200fa003a
:1038d000000f7800040037001e00780010407800c8
:1038e000eeff07001e0fe8001e0078001040780071
:1038f0000004e000f8ff3a000080fa000000060033
:103900000a00fa002007980031079800024f98003b
:103910003e0090000000e00002003a000000eb00d2
:10392000240037000000eb00100798000000eb00b7
:1039300010079800170037000e4890000004e000c0
:10394000030032001b010700004f7800020037001f
:103950000d010700004f78001e407800ea4f50002c
:10396000100032001e407800ed4f50000d00320074
:103970009e4078002e009000014878002e009000b4
:103980000000e800200798001e0090000000e800fa
:10399000100798009e0090003e009000808f50001d
:1039a000e5ff39002e0090008040eb0001487800d0
:1039b0001e0090000080fa00000006000400fa00db
:1039c000000f7800110798001e0090000041eb00e6
:1039d000800078001e007800c9ff07000080fa0010
:1039e000000006000400fa00000f7800110798009c
:1039f0001e00900012c0b300800078001e00780006
:103a0000bfff07000080fa00000006000400fa0073
:103a1000204798002e4090000080fb004400de000c
:103a2000004f78001e407800e94f50000400360037
:103a300071c3b3001ec0400098ff070003003700a9
:103a400001c3b3001ec0400094ff07002e40900049
:103a50006f4f60001e407800e94f500004003600b0
:103a600071c3b3001ec040008cff07000300370085
:103a700001c3b3001ec0400088ff07000080fa00a9
:103a8000000006000200fa00004f780000d62a006d
:103a90008eff07001e407800dcff07000080fa0060
:103aa000000006000400fa001007980000d62a0063
:103ab00086ff07001e0090004800de00004f7800df
:103ac0001e407800d1ff07001e009000004f7800d4
:103ad0001e407800cdff07000080fa0000000600bd
:103ae0000600fa00100798002107980000d62a0067
:103af00076ff07001e009000ae0090004808de0030
:103b0000004f78001e407800c0ff07001e009000a4
:103b1000ae0090004008de00004f78001e407800a4
:103b2000baff07001e009000ae0090004809dd00bb
:103b30004800de0000007100c808de00004f780079
:103b40001e407800b1ff07001e009000004f780073
:103b50001e407800adff07000080fa00000006005c
:103b60000a00fa00004f98000040eb00004f780078
:103b70008e4890001147980000c3b300204798007a
:103b800000c3b3003047980000c3b300404798001b
:103b90000040eb00504798009e40900070ccb3006e
:103ba00080cf5000060036002e40900000c0e80094
:103bb000204798001e4090008043b00010479800b6
:103bc0009e40900030c6b30080cf50000700360002
:103bd0002e4090000040e800204798009e40900052
:103be000c0c9b30000c04000104798000040eb007f
:103bf000004f78001e0037001e80fb00a1e02a0065
:103c0000e14078001e40900080cf500017003e0039
:103c10001e80fb004200de00004078008080fb0038
:103c20000101e8000080fb000000e8000000470000
:103c300020409000804078001e80fb0023e12a0095
:103c40006340780000c040008040780002004700d8
:103c5000214098001e80fb00a1e02a00614078000e
:103c60009e40900000c05000104798001e4fe80092
:103c70001e407800e74f5000dfff36000040eb00a9
:103c8000504798000e80e80010ff07000080fa00ff
:103c9000000006000c00fa00500798000040eb00fe
:103ca000004f7800de0090001107980000c3b300b9
:103cb0004047980000c3b3005047980000c3b300ca
:103cc0006047980000c3b3007047980000c3b3007a
:103cd000004f98000040eb00004f780021003700b3
:103ce0001e80fb0080004000e0dd2a0000804000d4
:103cf000900078001e009000808f500018003e0059
:103d00001e80fb004200de00004078000081fb00c6
:103d10000080fb0000004700404090008040780099
:103d20001e80fb006300600063e02a0063407800af
:103d300000c04000804078000200470041409800e9
:103d40001e80fb0080004000e0dd2a000080400073
:103d5000100078009e00900000805000100798002e
:103d60001e4fe8001e407800f34f5000dcff360085
:103d70000040eb00104f980064004700d3fe07009e
:103d80000080fa00000006000000fa00b056800033
:103d9000e10f500002003a006900070003003700fd
:103da00030d62a00000107000040eb000080fa0036
:103db000000006000200fa00f3ff0700004f780041
:103dc0001e407800b5fe07001e4078000080fa0013
:103dd000000006000000fa00b0568000e10f50001d
:103de00002003a00500007000300370000da2a0002
:103df000ed0007000040eb000080fa000000060024
:103e00000400fa00008fbe0010002000b0568800a9
:103e10001e00be00560007000080fa0000000600e9
:103e20000400fa00004f7800110798001e40780047
:103e30000004e00002003a001e009000da000700d3
:103e40000080fa00000006000400fa00008fbe00a7
:103e50001e00be00b60807001e00be00c409de003a
:103e60004c0add004401de0002017200604e800059
:103e7000714e80000200400083804800604e880040
:103e8000714e88000080fa00000006000200fa006f
:103e900010118000680060000000e00004003200a3
:103ea00030118000004f780060ed2a00be0007004e
:103eb00010118000640060000000e0000400320087
:103ec00030118000004f7800a0ee2a00b6000700f5
:103ed00010118000620060000000e000030032006a
:103ee0002222a900f0ef2a00af0007000080fa00ac
:103ef000000006000200fa00004f780001003700c1
:103f00007200070011118000002020000080600076
:103f10000000e000faff3a001e80fb00201188003c
:103f20000080fa00000006000000fa001011800076
:103f300000407800614060000080fa000000060048
:103f40000000fa0001003700600007001011800037
:103f5000610060000000e000fbff3200cbff0700c3
:103f600030118000004078000080fa000000060058
:103f70000400fa00008fbe00c942a800cf42a90089
:103f80006a00a9002135800000fe2f00008060003b
:103f9000a000b30020358800c962a900cf62a90043
:103fa00069e0a90051368000f00f2e00808060008b
:103fb0000030200001007000503688002022ef0001
:103fc0001e02be000001eb0000a0250021262000fb
:103fd000130207004011880000002800001188002b
:103fe000004020001011880014c0b300703e200073
:103ff000010020001e01be00800f5100818f59007a
:1040000001003e000042eb0041f12a00044078002c
:1040100083ff070000c42900010020008aff070079
:104020002222a90001003700301180001011800009
:10403000680060000000e000fbff3a001011800003
:10404000640060000000e000f7ff3a000080fa0022
:10405000000006000000fa00c6fd07000080fa001c
:10406000000006000400fa00004f780011079800d5
:104070001e4078000004e00002003a001e0090009c
:10408000490007000080fa00000006000000fa0066
:104090002d23a800c9e2a900cfe2a9006960a90008
:1040a000cfe2a80000a8210061002000804e880017
:1040b000914e8800cc29ef00ce29ef00cde2a90077
:1040c000020007000080fa00000006000000fa006d
:1040d000604e8000714e800061004000e08048002a
:1040e000604e8800714e8800624e8000734e8000e2
:1040f000804e8000914e8000800f5100818f5900ca
:104100000300360004000700cc29ef00ce29ef00a1
:104110000080fa00000006000000fa00601680002f
:104120000080ea004f00de00004078000080fb00c5
:104130004f00dd0062168000f1ff27008100610062
:1041400001007000601688000080fa000000060080
:104150003600f800809fbe00829fbe00849fbe0094
:10416000869fbe003400f80000002000a0018800f7
:104170000000fa00c09d20000107800001087800bf
:10418000207c2a00080007000080fa003400f900b3
:104190004f03be004f02be004f01be004f00be00e5
:1041a0003600f900004006000200fa00000f780017
:1041b000c04e80000000e00003003a009e0078003e
:1041c000c14e88000000fe000080fa0000000600da
:1041d0000600fa0010079800210798009e00900042
:1041e000010f78001e009000ae0090004008de0035
:1041f0000040780032e0b7001e0078001080ba005e
:104200008000eb00c001dd00020020001e007800ed
:104210001000ba008000eb00000071008180710086
:104220000080fa00000006000e00fa0000002000e6
:10423000f10f2000e6ff07003007980041079800c3
:1042400020002000f10f2000e1ff07005007980038
:104250006107980010c0b300004f7800807d2a00ed
:1042600010079800807d2a00200798003e019000ea
:10427000ce019000d0f1200001002000800f5100fd
:10428000818f590003003a00007e2a001007980031
:10429000020037000040eb00004f78005e00900005
:1042a000ee0090004200230003002000820f500027
:1042b000838f5800210032004200230003002000b9
:1042c000820f5000838f58000b003e001200230025
:1042d00003002000820f5000838f5800110032002d
:1042e0002200230003002000820f5000838f58001b
:1042f0000f0032001a003700520023000300200094
:10430000820f5000838f58000f003200620023009c
:1043100003002000820f5000838f58000d003200f0
:104320000f003700f07e2a00200798000c003700ad
:10433000207f2a002007980009003700507f2a00bc
:104340002007980006003700807f2a002007980089
:1043500003003700b07f2a0020079800000000000b
:10436000e07f2a0059fd07003e009000ce0090003b
:10437000dbfd0700b0802a0054fd07001e009000fe
:1043800052fd0700e0802a0050fd07005e0090000b
:10439000ee009000d2fd0700b0802a004bfd070020
:1043a0002e00900049fd0700b0812a0047fd07005c
:1043b0001e4078000004e00002003a00e0812a007c
:1043c00042fd07000080fa00000006000000fa002d
:1043d000103a80004c00de00674060000080fb0067
:1043e000e30f50001b003200e30f500007003c00b9
:1043f000e10f500011003200e10f500012003c00ac
:104400000000e0000a00320021003700e50f5000f4
:1044100016003200e50f500011003500e60f500085
:1044200015003200e70f5000160032001800370068
:1044300050ab2a0025fd07001800370020ac2a00e9
:1044400022fd07001500370080ad2a001ffd070080
:104450001200370020af2a001cfd07000f003700b4
:1044600050b12a0019fd07000c00370040b22a00a5
:1044700016fd07000900370060b32a0013fd07008e
:104480000600370060b42a0010fd07000300370063
:1044900050b52a0044ff0700000000000080fa0029
:1044a000000006000200fa000040eb00004f780018
:1044b000003a8000680060000000e0000300320065
:1044c000e0b62a0001fd07004067a900003a80001d
:1044d000640060000000e00003003200e0b82a0041
:1044e000fafc07004047a900d0ba2a00f7fc0700f1
:1044f000003a8000610060000000e0000c00320023
:1045000010c0b300004f7800c0bb2a00effc0700ca
:104510004007a9004027a900d829ef00da29ef00b9
:10452000c09d20008000eb00010878004d0037009e
:10453000013a800000042000008060000000e000dc
:104540000600320070bc2a00e0fc070010c0b30077
:10455000004f780040c7a90040e7a900003a80005a
:10456000700060000000e0000d00320010c0b300d9
:10457000004f780080bd2a00d4fc0700d04e800098
:104580000000e00002003200d04e8000cffc0700a7
:10459000b0be2a00cdfc07004087a90040e7a90073
:1045a000013a800000082000008060000000e00068
:1045b0000500320010c0b300004f7800d0be2a00c2
:1045c000c2fc070040e7a900003a800062006000da
:1045d0000000e0000500320010c0b300004f78007a
:1045e000e0bf2a00b9fc07004027a900013a80007b
:1045f00000002800008060000000e000050032009c
:1046000010c0b300004f7800a0c02a00affc070024
:1046100041e7a900013a800000002400008060000a
:104620000000e0000500320010c0b300004f780029
:10463000a0c12a00a5fc070041c7a900013a8000db
:1046400000202000008060000000e0000500320033
:1046500010c0b300004f7800e0c22a009bfc0700a6
:104660004127a9001e4078000004e00002003a0043
:1046700070c42a0095fc0700c04e80000000e000d6
:104680001900320070c52a0090fc0700c04e80005f
:104690008efc0700c09d2000100078000000e000a4
:1046a0000b00320070c62a0088fc0700e04e800034
:1046b0004800de006f406000f2fc070020c72a00bf
:1046c00082fc0700e04e80000074a100edfc0700b2
:1046d00040c82a007dfc0700d829ef00c09d2000bb
:1046e0008000eb0001087800cffe070037ff0700cd
:1046f0000080fa00000006000200fa00000f7800b7
:1047000062fe070053fe070000102e00010020008b
:10471000bbfd070063ff07001e0078006bfc07006d
:104720000080fa00000006000800fa00881f7800e8
:1047300020079800310798002e009000be009000de
:104740004df50700008fbe001e00be0065f5070096
:104750000001be002e009000be009000a4f40700ef
:1047600018c0b3000200200003f0230040f507004a
:104770000000e000010035000044eb000804e00008
:10478000020032001e00be000400370012002000ac
:10479000030020003e004100ae8049004f04780035
:1047a0000080fa00000006000600fa00881f78006a
:1047b00010079800210798001e009000ae0090009e
:1047c0002df50700000f78001e0078008000eb0038
:1047d00044f507000001be001e009000ae009000ee
:1047e00083f4070018c0b3000200200003f0230088
:1047f0001ff507000000e000010035000044eb0059
:104800000804e000020032001e00780001003700ba
:104810001e00e8004f0478000080fa000000060047
:104820000e00fa00889fbe0020079800310798000c
:1048300042079800540798006507980010c0b3001d
:10484000ce009000e18f5000010036000040eb00e8
:1048500071c82a0003fe07004e0090000000e0002f
:1048600012003a002e009000be0090001df50700d7
:104870000004be005e009000ee00900019f50700f5
:104880000001be000800be00b7f4070002002000cf
:1048900003182400b4f407000200200003f82300ea
:1048a00053f40700008fbe00110037002e00900067
:1048b000be0090000bf507000004be005e009000f3
:1048c000ee00900007f507000001be000800be00e2
:1048d000a5f407000200200003082400a2f407004a
:1048e0000200200003f8230041f40700008fbe00ff
:1048f00018c0b30002f82f00f37724001e00be009a
:10490000dbf407000000e000010035000044eb008c
:1049100041cd2a0008407800d2fd07001e00be00ed
:10492000a1ff07004f04be000080fa00000006004f
:104930000400fa00008fbe001e00be00fc05070048
:104940001e00be00c409de004c0add004401de008a
:1049500002017200604e8000714e80000200400033
:1049600083804800604e8800714e88000080fa0005
:10497000000006000000fa0001003700d3fd070028
:1049800000198000610060000000e000fbff3200c1
:104990000080fa00000006000400fa00000f780012
:1049a00021479800324798002e409000ff4f50005a
:1049b00002003600f0c1b3002047980021e3a900af
:1049c000000e2000001988003e4090000004e00026
:1049d000020032002143a800010037002143a90052
:1049e00000002800101988009e00780041198800f6
:1049f0002e4090000080fb004800dd008000780021
:104a000000002800010070002019880021e3a800a0
:104a10000080fa00000006000200fa00a0f62a005a
:104a2000d04e8800003a80004500de006140600002
:104a3000004f780040a7a8002023a8000000000035
:104a4000ccff07009e40780061c060000080fb0042
:104a5000610060004500dd00023a8000f1fd2f009a
:104a60008100610001007000003a8800da29ef003f
:104a7000001880000080fa00000006000000fa0024
:104a80000228ef00680037000028ef000b00370015
:104a90001140800000408000008040008000400005
:104aa00080942000008040008000eb000108780026
:104ab000004080000000e8000040880000408000c6
:104ac000e20f5000f2ff340010408000e4000700c5
:104ad000900020000040880048003700c282a900f2
:104ae000800220000100200091ff07005116800085
:104af00000102000008060000000e0000e00320086
:104b0000104080001140800001814000819420000d
:104b10008100410011017800014080001300200055
:104b20008118dd0082807000000140008094200028
:104b300000004100010878005116800000082000a4
:104b4000008060000000e000100032001040800093
:104b50000000e800114080008100e8000181400071
:104b60008194200081004100110178000140800003
:104b7000130020008118dd008280700000014000d9
:104b80008094200000004100010878005116800048
:104b900000042000008060000000e00010003200ef
:104ba000104080000080e800114080008180e80013
:104bb00001814000819420008100410011017800b2
:104bc00001408000130020008118dd008280700009
:104bd000000140008094200000004100010878009e
:104be000c282a800800220000100200050ff0700c0
:104bf000004080000000e900004088000040800084
:104c00000000e000b5ff3d00c282a900ca82a800f2
:104c1000800220000100200045ff070010408000b6
:104c20000000e80010408800104080000000e00014
:104c300095ff34000000eb000080fa000000060041
:104c40000000fa000228ef003400370020062000a0
:104c5000dbf407000028ef002a0037000040800046
:104c6000124080000140800081004100018140002d
:104c7000819420008100410011017800f13f200063
:104c800081006100000140004080200000004100e0
:104c90000108780000408000800040004080200033
:104ca000008040001000780000407800cbe9b70099
:104cb00000408000800040004080200000804000d4
:104cc000100078004800de0000407800cae9b70014
:104cd000cbc9bf008000fb00cac9bf000000fb00b9
:104ce000811f7800801f780080f72a00801f7800dd
:104cf000b5f40700e6875700004080000000e80098
:104d00000040880000408000e20f5000d3ff3400d4
:104d1000104080000000e800104088001040800033
:104d20000000e000c9ff3400a0002000a4f4070048
:104d30000080fa00000006000200fa00d0f72a0006
:104d40006dfe07002c03a900c002a800c602a9003e
:104d50006840a9002c23a900c022a800c622a900ef
:104d60006860a9002c83a900c842a800ce42a9000f
:104d700068c0a900c902a800cf02a9006ac0a900a2
:104d8000c8e2a800cee2a9006ae0a900c8c2a80053
:104d9000cec2a9006b00a900c922a900cf22a90098
:104da0006aa0a900c882a900ce82a9006820a90033
:104db000c082a900c682a9006800a900c8a2a900f3
:104dc000cea2a9006b60a90012c0b300f1c1b3006c
:104dd0000000eb00f0fe07000028ef001400370091
:104de0000000eb00000f78000b003700004080004f
:104df0009e004000004080001e004000811f78009f
:104e0000801f7800b0fa2a00801f78006ef4070037
:104e1000e68757001e0fe8001e0078000000e00043
:104e2000f2ff3400004080000000e80000408800ed
:104e300000408000e20f5000e9ff3400c0fb2a0070
:104e400055f407000dff07007dff070000702800e4
:104e500031392000b6fe07009cfc0700f9ff37003f
:104e60000200fa00000f7800c282a800ca82a800df
:104e7000cb22a9008002200001002000acfe070028
:104e8000c282a900ca82a900cb22a8008002200009
:104e900001002000a6fe0700c282a80080022000b8
:104ea00001002000a2fe0700c282a900cb22a800b8
:104eb00080022000010020009dfe0700c282a800a1
:104ec000800220000100200099fe07002000200041
:104ed0000040880015003700c282a9000040800011
:104ee0009e0078000088de006100600000407800cd
:104ef0000004e00002003200cb22a80001003700cd
:104f0000cb22a900800220000100200088fe0700bb
:104f1000c282a800800220000100200084fe070059
:104f2000004080000000e900004088000040800050
:104f30000000e000e8ff3d000028ef000b00370014
:104f4000c282a900800220000100200078fe070034
:104f5000c282a800800220000100200074fe070029
:104f6000004080000000e800004088000040800011
:104f7000e10f5000f2ff34000000eb000080fa0067
:044f80000000060027
:020000040000fa
:104f8400556e0000686100006e6400006c650000ee
:104f940064200000696e00007465000072720000f5
:104fa40075700000742c000020000000756e000075
:104fb4006b6e00006f7700006e0000005049000027
:104fc40043320000344800004a33000032470000f6
:104fd4005032000030320000004100003200000076
:104fe400413300000041000034000000413500005e
:104ff40000410000360000004465000076690000ae
:105004006365000020490000442000003d200000aa
:105014000020000028000000292c0000207200005d
:105024006576000069730000696f00006e2000005f
:10503400002900000a0000000a0a00002a2a0000d1
:105044002a2a00002a2a00002a2a00002a2a00000c
:105054002a2a00002a2a00002a2a00002a2a0000fc
:105064002a2a00002a2a00002a2a00002a2a0000ec
:105074002a2a00002a2a00002a2a00002a2a0000dc
:105084002a2a00002a2a00002a2a00002a2a0000cc
:105094002a2a00002a2a00002a2a00002a2a0000bc
:1050a4002a2a00002a2a00000a2a000020570000a9
:1050b400415200004e4900004e470000202d0000e0
:1050c4002074000068690000732000007072000002
:1050d4006f670000726100006d20000077610000be
:1050e40073200000636f00006d700000696c0000a5
:1050f40065640000206600006f72000020740000e8
:105104006865000020770000726f00006e67000081
:10511400202000002a0a00002a2000006368000002
:10512400697000002e2000005468000069730000bc
:1051340020700000726f000067720000616d000053
:10514400206d00006179000020700000726f000083
:105154006475000063650000207500006e65000042
:10516400787000006563000074650000642000002e
:105174006265000068760000696f0000722100001b
:10518400202a00000a2a000020450000646900006b
:105194007420000074680000652000006865000049
:1051a400616400006572000020660000696c000004
:1051b40065730000207400006f200000707200000e
:1051c4006f700000657200006c79000020640000bc
:1051d40065660000696e00006520000074680000c8
:1051e40069730000206300006869000070200000fb
:1051f4002a0a00002a200000616e000064200000da
:10520400746f0000206900006e7300007572000066
:1052140065200000636f0000727200006563000087
:10522400742000006f70000065720000617400005b
:10523400696f00006e2e0000202000002020000076
:10524400202000002020000020200000202000005a
:10525400202000002020000020200000202a000040
:105264000a2a000020200000202000002020000046
:10527400202000002020000020200000202000002a
:10528400202000002020000020200000202000001a
:10529400202000002020000020200000202000000a
:1052a40020200000202000002020000020200000fa
:1052b40020200000202000002020000020200000ea
:1052c4002020000020200000202000002a0a0000e6
:1052d4002a2000004e4f0000544500003a200000f0
:1052e4004966000020740000686900007320000013
:1052f4007761000073200000636f00006d70000090
:10530400696c000065640000206600006f72000094
:105314002074000068650000206300006f720000c4
:105324007265000063740000206300006869000077
:10533400702c000020200000202a00000a2a00000f
:10534400206100006e640000206f00006e6c00009d
:10535400792000006f630000637500007273000021
:105364002061000074200000706f00007765000069
:10537400722d00006f6e0000202800006e6f000088
:105384007420000064750000726900006e670000fc
:1053940020610000204d0000434c0000522000001a
:1053a40020200000202000002a0a00002a200000fb
:1053b4007265000073650000742900002c20000051
:1053c40076650000726900006679000020740000b0
:1053d400686100007420000041560000444400004d
:1053e400206100006e64000020410000565300005c
:1053f400532000006172000065200000636f00000c
:105404006e6e00006563000074650000642e000089
:1054140020200000202a00000a2a0000204f00005b
:105424006e200000746800006520000050490000f0
:10543400433200003448000033320000475000007b
:1054440032300000322c0000206e00006f74000027
:10545400206300006f6e00006e650000637400003e
:10546400696e0000672000004156000044440000bb
:105474002020000020200000202000002020000028
:10548400202000002a0a00002a2000007072000078
:105494006f640000756300006573000020740000f1
:1054a40068690000732000006d65000073730000dc
:1054b40061670000652000006f6e00006c790000d9
:1054c4002061000074200000706f00007765000008
:1054d400722d0000757000002e20000020200000b6
:1054e40020200000202000002020000020200000b8
:1054f400202a00000a2a00002a2a00002a2a000082
:105504002a2a00002a2a00002a2a00002a2a000047
:105514002a2a00002a2a00002a2a00002a2a000037
:105524002a2a00002a2a00002a2a00002a2a000027
:105534002a2a00002a2a00002a2a00002a2a000017
:105544002a2a00002a2a00002a2a00002a2a000007
:105554002a2a00002a2a00002a2a00002a2a0000f7
:105564002a0a000000460000617300007420000055
:1055740052430000204f0000736300000a00000043
:1055840046610000737400002052000043200000b4
:105594004f73000063200000776900007468000006
:1055a400205000004c4c00000a0000005072000023
:1055b400696d000061720000792000004f730000e3
:1055c4006320000028580000542c000020480000ec
:1055d400532c000020450000432900000a0000006d
:1055e40050720000696d00006172000079200000b3
:1055f4004f7300006320000028580000542c000062
:1056040020480000532c00002045000043290000de
:10561400207700006974000068200000504c0000ee
:105624004c0a000000530000656300006f6e000028
:105634006461000072790000204f00007363000071
:105644000a0000004c6f000077200000506f00003b
:10565400776500007220000052430000204f0000d4
:10566400736300000a0000004661000073740000c8
:1056740020520000432000004f730000632f0000fd
:10568400313600000a000000466100007374000017
:1056940020520000432000004f730000632f0000dd
:1056a4004e0a0000005500006e6b00006e6f000093
:1056b400776e0000206f000073630000696c0000c7
:1056c4006c610000746f00007220000074790000a7
:1056d400706500002e0000000a440000657600009a
:1056e4006963000065200000686100007320000009
:1056f40062650000656e0000206900006e200000f5
:10570400736c000065650000702000006d6f000080
:10571400646500000a0000000a4400006576000089
:1057240069630000652000006861000073200000c8
:1057340062650000656e0000206900006e200000b4
:10574400696400006c650000206d00006f64000057
:10575400650a0000000a000052650000736500003d
:10576400742000006361000075730000653a000056
:1057740020000000506f000077650000722d0000cb
:105784006f6e00002e0a0000005300006f660000d8
:10579400747700006172000065200000526500000b
:1057a40073650000742e00000a00000057610000b9
:1057b40074630000686400006f67000020540000f8
:1057c400696d0000656f0000757400003a200000e8
:1057d400000a0000004d0000434c0000522000006d
:1057e400617300007365000072740000696f00004b
:1057f4006e2e00000a000000427200006f77000065
:105804006e2d00006f750000742e00000a00000069
:105814005472000061700000204300006f6e0000ad
:10582400666c000069630000742e00000a0000002a
:10583400496c00006c650000676100006c2000008a
:10584400436f00006e64000069740000696f00001b
:105854006e2e00000a000000436f00006e66000018
:10586400696700007572000061740000696f0000d0
:105874006e2000004d690000736d0000617400002b
:10588400636800002e0a0000005500006e6b0000e3
:105894006e6f0000776e00002072000065730000d8
:1058a400657400002e0a00000045000072720000ba
:1058b4006f720000207400007261000070700000bc
:1058c400656400003a200000005000007269000086
:1058d4006f72000069740000793a00002000000033
:1058e4002c20000056650000637400006f720000f5
:1058f400206e0000756d000062650000723a0000c1
:10590400200000000a0a0000004500007272000036
:105914006f720000206900006e2000002e2e00002f
:105924002f2e00002e2f00006c690000622f000053
:1059340073720000632f000070690000633200007e
:10594400345f000075740000696c00002e63000071
:10595400206c0000696e00006520000034360000f1
:10596400393a000020410000535300004552000022
:105974005428000075310000365f00006272000098
:1059840067680000203c00003d2000003129000031
:1059940020660000616900006c650000642e000050
:1059a4000a00000045720000726f000072200000bf
:1059b400696e0000202e00002e2f00002e2e000005
:1059c4002f6c0000696200002f73000072630000f6
:1059d4002f70000069630000323400005f7500001e
:1059e400746900006c2e0000632000006c690000e4
:1059f4006e65000020340000373500003a200000b6
:105a04004153000053450000525400002866000032
:105a14005f62000072670000203c00002036000036
:105a240035350000333500002e35000029200000f4
:105a340066610000696c0000656400002e0a0000c5
:105a44000000000045720000726f00007220000028
:105a5400696e0000202e00002e2f00002e2e000064
:105a64002f6c0000696200002f7300007263000055
:105a74002f70000069630000323400005f7300007f
:105a840065720000696100006c2e00006320000054
:105a94006c6900006e65000020380000303a000098
:105aa400204900006e760000616c0000696400000b
:105ab40020550000415200005400000030780000de
:105ac40000450000727200006f720000206900003f
:105ad4006e2000002e2e00002f2e00002e2f00001e
:105ae4006c690000622f000073720000632f0000d5
:105af4007069000063320000345f000073650000c9
:105b040072690000616c00002e630000206c0000cc
:105b1400696e00006520000032390000353a00004b
:105b2400204900006e760000616c0000696400008a
:105b3400205500004152000054000000457200004e
:105b4400726f000072200000696e0000202e0000b9
:105b54002e2f00002e2e00002f6c00006962000022
:105b64002f730000726300002f700000696300004f
:105b7400323400005f730000657200006961000048
:105b84006c2e0000632000006c6900006e6500004c
:105b940020330000333400003a200000496e000036
:105ba400766100006c69000064200000554100002b
:105bb400525400000000000050c300003075000083
:105bc400204e00001027000088130000b80b0000ce
:105bd400d0070000e8030000f40100002c010000dd
:105be400c800000064000000320000001e00000035
:105bf400140000000a00000005000000030000007b
:105c04000200000001000000050300000201000082
:105c1400321e0000140a0000050300000201000007
:105c2400050300000201000005030000020100005a
:105c34000a0a0000596f000075720000206300001a
:105c44006c6f0000636b000020630000686f00004d
:105c5400696300006520000066610000696c000053
:105c640065640000207400006f200000696e00006d
:105c740069740000696100006c6900007a650000c5
:105c84002e20000053650000652000002e2e000029
:105c94002f2e00002e2f00006c690000622f0000e0
:105ca40073720000632f000070690000633200000b
:105cb400345f0000636c00006f6300006b660000db
:105cc40072650000712e0000632000006c69000002
:105cd4006e650000203100003436000020660000ac
:105ce4006f720000206d00006f72000065200000dc
:105cf4006465000074610000696c0000732e00008c
:105d040000450000727200006f72000020690000fc
:105d14006e2000002e2e00002f2e00002e2f0000db
:105d24006c690000622f000073720000632f000092
:105d34007069000063320000345f0000636c00008f
:105d44006f6300006b66000072650000712e000036
:105d5400632000006c6900006e65000020310000c3
:105d6400373200003a200000415300005345000040
:105d74005254000028750000385f0000736f000063
:105d84007572000063650000203c000020380000ac
:105d94002920000066610000696c00006564000051
:105da4002e0a00000000000055410000525400007b
:105db40031200000706100007269000074790000f5
:105dc40020650000727200006f7200000a0000007b
:105dd400554100005254000031200000667200005a
:105de400616d0000696e00006720000065720000ac
:105df400726f0000720a000000550000415200005a
:105e040054310000206f00007665000072720000bb
:105e1400756e000020650000727200006f72000051
:105e24000a00000045720000726f0000722000003a
:105e3400696e0000202e00002e2f00002e2e000080
:105e44002f6c0000696200002f7300007263000071
:105e54002f70000069630000323400005f75000099
:105e640061720000742e0000632000006c69000061
:105e74006e65000020330000363100003a20000037
:105e8400415300005345000052540000287500009f
:105e9400333200005f62000061750000645200004c
:105ea40061740000652000003e3d000020310000c8
:105eb40030300000304c00002920000066610000f2
:105ec400696c0000656400002e0a000000000000f8
:105ed400636f00006e76000065720000744100007c
:105ee400444300003128000029000000256300001d
:105ef40025630000000a00002e2e00002f6500001c
:105f0400636800006f2e0000632c00002062000014
:105f1400756900006c740000206f00006e200000a2
:105f24004e6f00007620000032390000203200005d
:105f34003031000035200000617400002031000081
:105f4400353a0000323900003a330000330a0000c9
:105f540000430000485b0000256900005d09000063
:105f6400306200005b43000048250000695d0000ca
:0c5f740009000000414e00003000000059
:020000040000fa
:105f8000d40900000400000000000000cc0900005b
:105f9000080000000000000000080000cc01000024
:105fa00000000000de090000020000000200000006
:105fb0000a000000d60a00000200000002000000f3
:105fc00001000000aa0a00002600000002000000f4
:105fd000d10a000000d10a00090000000002000000
:105fe000d30a000000d30a000e02010000000000e6
:105ff0000000000000000000060202000000000097
:10600000aa0a0000d00a00000600000000000000fc
:10601000e0090000ca000000020000003031320038
:1060200033343500363738003941420043444500a7
:10603000460030003132330034353600373839000d
:10604000616263006465660000286e00756c6c0018
:1060500029000000010000000000000000000a000c
:1060600000000000000000000064000000000000cc
:1060700000000000e8030000000000000000100025
:10608000270000000000000000a0860001000000c2
:106090000000000040420f000000000000008000ef
:1060a00096980000000000000000e100f5050000e7
:1060b0000000000000ca9a003b0000000000000041
:1060c000e40b5400020000000000e80076481700ce
:1060d000000000000010a500d4e80000000000004f
:1060e000a0724e0018090000000040007a10f30072
:1060f0005a0000000080c600a47e8d00030000004e
:1061000000c16f00f2862300000000008a5d780065
:106110004563010000006400a7b3b600e00d000075
:1061200000e889000423c7008a0000000000000086
:020000040000fa
:10613000f03fb1000180b10006003500ee03090018
:1061400000000000403fb1000180b100fbff3d00b6
:106150001000b000203fb0000200350000800900b0
:08616000000000000000060031
:020000040000fa
:0200000401f009
:04000000ffff0000fe
:020000040000fa
:0200000401f009
:04000800ffff0000f6
:020000040000fa
:0200000401f009
:04000c0078ff000079
:020000040000fa
:0200000401f009
:040010005bff000092
:020000040000fa
:0200000401f009
:0400140079ff000070
:020000040000fa
:0200000401f009
:04001800fcff0000e9
:020000040000fa
:0200000401f009
:04001c00dfff000002
:00000001FF
